{
  "_format": "hh-sol-artifact-1",
  "contractName": "yfiicover",
  "sourceName": "contracts/ytoken.sol",
  "abi": [
    {
      "inputs": [
        {
          "internalType": "address",
          "name": "_lp",
          "type": "address"
        },
        {
          "internalType": "uint256",
          "name": "_amount",
          "type": "uint256"
        }
      ],
      "name": "getUnderlying",
      "outputs": [
        {
          "internalType": "uint256",
          "name": "",
          "type": "uint256"
        }
      ],
      "stateMutability": "view",
      "type": "function"
    },
    {
      "inputs": [
        {
          "internalType": "address",
          "name": "_token",
          "type": "address"
        },
        {
          "internalType": "address",
          "name": "_lp",
          "type": "address"
        },
        {
          "internalType": "uint256",
          "name": "_amount",
          "type": "uint256"
        }
      ],
      "name": "ilp2usd",
      "outputs": [
        {
          "internalType": "uint256",
          "name": "",
          "type": "uint256"
        }
      ],
      "stateMutability": "nonpayable",
      "type": "function"
    },
    {
      "inputs": [
        {
          "internalType": "address",
          "name": "_token",
          "type": "address"
        },
        {
          "internalType": "address",
          "name": "_lp",
          "type": "address"
        },
        {
          "internalType": "uint256",
          "name": "_amount",
          "type": "uint256"
        }
      ],
      "name": "usd2ilp",
      "outputs": [
        {
          "internalType": "uint256",
          "name": "",
          "type": "uint256"
        }
      ],
      "stateMutability": "nonpayable",
      "type": "function"
    },
    {
      "inputs": [],
      "name": "usdc",
      "outputs": [
        {
          "internalType": "address",
          "name": "",
          "type": "address"
        }
      ],
      "stateMutability": "view",
      "type": "function"
    },
    {
      "inputs": [],
      "name": "weth",
      "outputs": [
        {
          "internalType": "address",
          "name": "",
          "type": "address"
        }
      ],
      "stateMutability": "view",
      "type": "function"
    }
  ],
  "bytecode": "0x608060405234801561001057600080fd5b50611685806100206000396000f3fe608060405234801561001057600080fd5b50600436106100575760003560e01c80633e413bee1461005c5780633fc8cef31461007a578063875e3ed5146100985780639f06b3fa146100c8578063faf30ed7146100f8575b600080fd5b610064610128565b60405161007191906113aa565b60405180910390f35b610082610140565b60405161008f91906113aa565b60405180910390f35b6100b260048036036100ad91908101906110f2565b610158565b6040516100bf91906114b9565b60405180910390f35b6100e260048036036100dd9190810190611141565b6104e4565b6040516100ef91906114b9565b60405180910390f35b610112600480360361010d91908101906110f2565b610a62565b60405161011f91906114b9565b60405180910390f35b73d76bb6fdd24aa5f85ef614ab3008190cb279953f81565b73d0a1e359811322d97991e03f863a0c30c2cf029c81565b600073d76bb6fdd24aa5f85ef614ab3008190cb279953f73ffffffffffffffffffffffffffffffffffffffff168473ffffffffffffffffffffffffffffffffffffffff16146101dc576040517f08c379a00000000000000000000000000000000000000000000000000000000081526004016101d390611499565b60405180910390fd5b60008473ffffffffffffffffffffffffffffffffffffffff166370a08231306040518263ffffffff1660e01b815260040161021791906113aa565b60206040518083038186803b15801561022f57600080fd5b505afa158015610243573d6000803e3d6000fd5b505050506040513d601f19601f8201168201806040525061026791908101906111f5565b905073d0a1e359811322d97991e03f863a0c30c2cf029c73ffffffffffffffffffffffffffffffffffffffff168573ffffffffffffffffffffffffffffffffffffffff161015610321578373ffffffffffffffffffffffffffffffffffffffff166311e8416c846040518263ffffffff1660e01b81526004016102ea91906114b9565b600060405180830381600087803b15801561030457600080fd5b505af1158015610318573d6000803e3d6000fd5b5050505061038d565b8373ffffffffffffffffffffffffffffffffffffffff1663a5c0fd05846040518263ffffffff1660e01b815260040161035a91906114b9565b600060405180830381600087803b15801561037457600080fd5b505af1158015610388573d6000803e3d6000fd5b505050505b600073d76bb6fdd24aa5f85ef614ab3008190cb279953f73ffffffffffffffffffffffffffffffffffffffff166370a08231306040518263ffffffff1660e01b81526004016103dc91906113aa565b60206040518083038186803b1580156103f457600080fd5b505afa158015610408573d6000803e3d6000fd5b505050506040513d601f19601f8201168201806040525061042c91908101906111f5565b90506000828203905073d76bb6fdd24aa5f85ef614ab3008190cb279953f73ffffffffffffffffffffffffffffffffffffffff1663a9059cbb33836040518363ffffffff1660e01b81526004016104849291906113c5565b602060405180830381600087803b15801561049e57600080fd5b505af11580156104b2573d6000803e3d6000fd5b505050506040513d601f19601f820116820180604052506104d6919081019061117d565b508093505050509392505050565b600080610591670de0b6b3a7640000610583858773ffffffffffffffffffffffffffffffffffffffff166377c7b8fc6040518163ffffffff1660e01b815260040160206040518083038186803b15801561053d57600080fd5b505afa158015610551573d6000803e3d6000fd5b505050506040513d601f19601f8201168201806040525061057591908101906111f5565b610e5490919063ffffffff16565b610ec490919063ffffffff16565b905060008473ffffffffffffffffffffffffffffffffffffffff1663fc0c546a6040518163ffffffff1660e01b815260040160206040518083038186803b1580156105db57600080fd5b505afa1580156105ef573d6000803e3d6000fd5b505050506040513d601f19601f8201168201806040525061061391908101906110c9565b90506000808273ffffffffffffffffffffffffffffffffffffffff16630902f1ac6040518163ffffffff1660e01b815260040160606040518083038186803b15801561065e57600080fd5b505afa158015610672573d6000803e3d6000fd5b505050506040513d601f19601f8201168201806040525061069691908101906111a6565b509150915060008373ffffffffffffffffffffffffffffffffffffffff16630dfe16816040518163ffffffff1660e01b815260040160206040518083038186803b1580156106e357600080fd5b505afa1580156106f7573d6000803e3d6000fd5b505050506040513d601f19601f8201168201806040525061071b91908101906110c9565b905060008473ffffffffffffffffffffffffffffffffffffffff1663d21220a76040518163ffffffff1660e01b815260040160206040518083038186803b15801561076557600080fd5b505afa158015610779573d6000803e3d6000fd5b505050506040513d601f19601f8201168201806040525061079d91908101906110c9565b905060008273ffffffffffffffffffffffffffffffffffffffff166370a08231876040518263ffffffff1660e01b81526004016107da91906113aa565b60206040518083038186803b1580156107f257600080fd5b505afa158015610806573d6000803e3d6000fd5b505050506040513d601f19601f8201168201806040525061082a91908101906111f5565b905060008273ffffffffffffffffffffffffffffffffffffffff166370a08231886040518263ffffffff1660e01b815260040161086791906113aa565b60206040518083038186803b15801561087f57600080fd5b505afa158015610893573d6000803e3d6000fd5b505050506040513d601f19601f820116820180604052506108b791908101906111f5565b905060008773ffffffffffffffffffffffffffffffffffffffff166318160ddd6040518163ffffffff1660e01b815260040160206040518083038186803b15801561090157600080fd5b505afa158015610915573d6000803e3d6000fd5b505050506040513d601f19601f8201168201806040525061093991908101906111f5565b905060008082610952868d610e5490919063ffffffff16565b8161095957fe5b04915082610970858d610e5490919063ffffffff16565b8161097757fe5b04905073d0a1e359811322d97991e03f863a0c30c2cf029c73ffffffffffffffffffffffffffffffffffffffff168773ffffffffffffffffffffffffffffffffffffffff161415610a11576109ff816109f1848c6dffffffffffffffffffffffffffff168c6dffffffffffffffffffffffffffff16610f0e565b610f8090919063ffffffff16565b9b505050505050505050505050610a5c565b610a4e81610a40838b6dffffffffffffffffffffffffffff168d6dffffffffffffffffffffffffffff16610f0e565b610f8090919063ffffffff16565b9b5050505050505050505050505b92915050565b600073d76bb6fdd24aa5f85ef614ab3008190cb279953f73ffffffffffffffffffffffffffffffffffffffff168473ffffffffffffffffffffffffffffffffffffffff1614610ae6576040517f08c379a0000000000000000000000000000000000000000000000000000000008152600401610add90611459565b60405180910390fd5b60008373ffffffffffffffffffffffffffffffffffffffff166370a08231306040518263ffffffff1660e01b8152600401610b2191906113aa565b60206040518083038186803b158015610b3957600080fd5b505afa158015610b4d573d6000803e3d6000fd5b505050506040513d601f19601f82011682018060405250610b7191908101906111f5565b90508473ffffffffffffffffffffffffffffffffffffffff1663095ea7b385856040518363ffffffff1660e01b8152600401610bae9291906113ee565b602060405180830381600087803b158015610bc857600080fd5b505af1158015610bdc573d6000803e3d6000fd5b505050506040513d601f19601f82011682018060405250610c00919081019061117d565b5073d0a1e359811322d97991e03f863a0c30c2cf029c73ffffffffffffffffffffffffffffffffffffffff168573ffffffffffffffffffffffffffffffffffffffff161015610cb9578373ffffffffffffffffffffffffffffffffffffffff1663971e3c43846040518263ffffffff1660e01b8152600401610c8291906114b9565b600060405180830381600087803b158015610c9c57600080fd5b505af1158015610cb0573d6000803e3d6000fd5b50505050610d25565b8373ffffffffffffffffffffffffffffffffffffffff166371210a0d846040518263ffffffff1660e01b8152600401610cf291906114b9565b600060405180830381600087803b158015610d0c57600080fd5b505af1158015610d20573d6000803e3d6000fd5b505050505b60008473ffffffffffffffffffffffffffffffffffffffff166370a08231306040518263ffffffff1660e01b8152600401610d6091906113aa565b60206040518083038186803b158015610d7857600080fd5b505afa158015610d8c573d6000803e3d6000fd5b505050506040513d601f19601f82011682018060405250610db091908101906111f5565b9050600082820390508573ffffffffffffffffffffffffffffffffffffffff1663a9059cbb33836040518363ffffffff1660e01b8152600401610df49291906113c5565b602060405180830381600087803b158015610e0e57600080fd5b505af1158015610e22573d6000803e3d6000fd5b505050506040513d601f19601f82011682018060405250610e46919081019061117d565b508093505050509392505050565b600080831415610e675760009050610ebe565b6000828402905082848281610e7857fe5b0414610eb9576040517f08c379a0000000000000000000000000000000000000000000000000000000008152600401610eb090611479565b60405180910390fd5b809150505b92915050565b6000610f0683836040518060400160405280601a81526020017f536166654d6174683a206469766973696f6e206279207a65726f000000000000815250610fd5565b905092915050565b600080610f266103e586610e5490919063ffffffff16565b90506000610f3d8483610e5490919063ffffffff16565b90506000610f6883610f5a6103e889610e5490919063ffffffff16565b610f8090919063ffffffff16565b9050808281610f7357fe5b0493505050509392505050565b600080828401905083811015610fcb576040517f08c379a0000000000000000000000000000000000000000000000000000000008152600401610fc290611439565b60405180910390fd5b8091505092915050565b6000808311829061101c576040517f08c379a00000000000000000000000000000000000000000000000000000000081526004016110139190611417565b60405180910390fd5b50600083858161102857fe5b049050809150509392505050565b600081359050611045816115dc565b92915050565b60008151905061105a816115dc565b92915050565b60008151905061106f816115f3565b92915050565b6000815190506110848161160a565b92915050565b60008135905061109981611621565b92915050565b6000815190506110ae81611621565b92915050565b6000815190506110c381611638565b92915050565b6000602082840312156110db57600080fd5b60006110e98482850161104b565b91505092915050565b60008060006060848603121561110757600080fd5b600061111586828701611036565b935050602061112686828701611036565b92505060406111378682870161108a565b9150509250925092565b6000806040838503121561115457600080fd5b600061116285828601611036565b92505060206111738582860161108a565b9150509250929050565b60006020828403121561118f57600080fd5b600061119d84828501611060565b91505092915050565b6000806000606084860312156111bb57600080fd5b60006111c986828701611075565b93505060206111da86828701611075565b92505060406111eb868287016110b4565b9150509250925092565b60006020828403121561120757600080fd5b60006112158482850161109f565b91505092915050565b61122781611562565b82525050565b611236816114f0565b82525050565b6000611247826114d4565b61125181856114df565b9350611261818560208601611598565b61126a816115cb565b840191505092915050565b6000611282601b836114df565b91507f536166654d6174683a206164646974696f6e206f766572666c6f7700000000006000830152602082019050919050565b60006112c26008836114df565b91507f2175736432696c700000000000000000000000000000000000000000000000006000830152602082019050919050565b60006113026021836114df565b91507f536166654d6174683a206d756c7469706c69636174696f6e206f766572666c6f60008301527f77000000000000000000000000000000000000000000000000000000000000006020830152604082019050919050565b60006113686008836114df565b91507f21696c70327573640000000000000000000000000000000000000000000000006000830152602082019050919050565b6113a481611548565b82525050565b60006020820190506113bf600083018461122d565b92915050565b60006040820190506113da600083018561121e565b6113e7602083018461139b565b9392505050565b6000604082019050611403600083018561122d565b611410602083018461139b565b9392505050565b60006020820190508181036000830152611431818461123c565b905092915050565b6000602082019050818103600083015261145281611275565b9050919050565b60006020820190508181036000830152611472816112b5565b9050919050565b60006020820190508181036000830152611492816112f5565b9050919050565b600060208201905081810360008301526114b28161135b565b9050919050565b60006020820190506114ce600083018461139b565b92915050565b600081519050919050565b600082825260208201905092915050565b60006114fb82611528565b9050919050565b60008115159050919050565b60006dffffffffffffffffffffffffffff82169050919050565b600073ffffffffffffffffffffffffffffffffffffffff82169050919050565b6000819050919050565b600063ffffffff82169050919050565b600061156d82611574565b9050919050565b600061157f82611586565b9050919050565b600061159182611528565b9050919050565b60005b838110156115b657808201518184015260208101905061159b565b838111156115c5576000848401525b50505050565b6000601f19601f8301169050919050565b6115e5816114f0565b81146115f057600080fd5b50565b6115fc81611502565b811461160757600080fd5b50565b6116138161150e565b811461161e57600080fd5b50565b61162a81611548565b811461163557600080fd5b50565b61164181611552565b811461164c57600080fd5b5056fea2646970667358221220abae7cd30a250c46529a2a231a0a704a1772a440f9350547226fc75ecbe6e85864736f6c63430006020033",
  "linkReferences": {},
  "deployedLinkReferences": {}
}